:100000000088FF1FA91E0000415700001D5000007E
:1000100000000000000000000000000000000000E0
:10002000000000000000000000000000191F000098
:100030000000000000000000191F0000191F000050
:10004000191F0000191F0000191F0000191F0000D0
:10005000191F0000191F0000191F0000191F0000C0
:10006000191F0000191F0000191F0000191F0000B0
:10007000191F0000191F0000191F0000191F0000A0
:10008000191F0000191F0000191F0000191F000090
:10009000191F0000191F0000191F0000191F000080
:1000A000191F0000191F0000191F0000191F000070
:1000B0004D5200004D5200004D5200004D520000C4
:1000C000191F0000191F0000191F0000191F000050
:1000D000191F0000191F0000191F0000191F000040
:1000E000191F0000191F0000191F0000191F000030
:1000F000191F0000191F0000191F0000191F000020
:10010000191F0000191F0000191F0000191F00000F
:10011000191F0000191F0000191F0000191F0000FF
:10012000191F0000191F0000191F0000191F0000EF
:10013000191F0000191F0000191F0000191F0000DF
:10040000C0DEFACEABBAFEEDFFFFFFFFBE3BFFFF43
:10041000002243088B4274D303098B425FD3030A43
:100420008B4244D3030B8B4228D3030C8B420DD356
:10043000FF22090212BA030C8B4202D312120902E4
:1004400065D0030B8B4219D300E0090AC30B8B4222
:1004500001D3CB03C01A5241830B8B4201D38B03D0
:10046000C01A5241430B8B4201D34B03C01A524175
:10047000030B8B4201D30B03C01A5241C30A8B42B8
:1004800001D3CB02C01A5241830A8B4201D38B02A3
:10049000C01A5241430A8B4201D34B02C01A524147
:1004A000030A8B4201D30B02C01A5241CDD2C309B9
:1004B0008B4201D3CB01C01A524183098B4201D335
:1004C0008B01C01A524143098B4201D34B01C01A20
:1004D000524103098B4201D30B01C01A5241C30898
:1004E0008B4201D3CB00C01A524183088B4201D307
:1004F0008B00C01A524143088B4201D34B00C01AF3
:100500005241411A00D20146524110467047FFE75E
:1005100001B5002000F0F0F802BDC0460029F7D078
:1005200076E7704703460B437FD4002243088B4293
:1005300074D303098B425FD3030A8B4244D3030B6A
:100540008B4228D3030C8B420DD3FF22090212BA2F
:10055000030C8B4202D31212090265D0030B8B42AB
:1005600019D300E0090AC30B8B4201D3CB03C01A95
:100570005241830B8B4201D38B03C01A5241430B70
:100580008B4201D34B03C01A5241030B8B4201D360
:100590000B03C01A5241C30A8B4201D3CB02C01ACB
:1005A0005241830A8B4201D38B02C01A5241430A43
:1005B0008B4201D34B02C01A5241030A8B4201D332
:1005C0000B02C01A5241CDD2C3098B4201D3CB01D9
:1005D000C01A524183098B4201D38B01C01A524188
:1005E00043098B4201D34B01C01A524103098B428C
:1005F00001D30B01C01A5241C3088B4201D3CB0077
:10060000C01A524183088B4201D38B00C01A524159
:1006100043088B4201D34B00C01A5241411A00D209
:1006200001465241104670475DE0CA0F00D0494272
:10063000031000D34042534000229C4603098B42E2
:100640002DD3030A8B4212D3FC22890112BA030A6A
:100650008B420CD3890192118B4208D389019211EC
:100660008B4204D389013AD0921100E08909C30971
:100670008B4201D3CB01C01A524183098B4201D373
:100680008B01C01A524143098B4201D34B01C01A5E
:10069000524103098B4201D30B01C01A5241C308D6
:1006A0008B4201D3CB00C01A524183088B4201D345
:1006B0008B00C01A5241D9D243088B4201D34B0060
:1006C000C01A5241411A00D20146634652415B10A2
:1006D000104601D34042002B00D549427047634683
:1006E0005B1000D3404201B5002000F005F802BDC8
:1006F0000029F8D016E770477047C04680B582B031
:1007000000AF0200FB1D1A70FB1D1B787F2B09D860
:10071000064BFA1D127811001F220A400121914058
:100720000A001A60C046BD4602B080BD00E100E08C
:10073000B0B582B000AF02003960FB1D1A70FB1D1E
:100740001B787F2B28D82F4CFB1D1B785BB29B0896
:100750002C49FA1D127852B29208C03292005258B7
:10076000F91D0978080003210140C900FF208840D5
:100770000100C94311403A689201FF201040FA1D60
:100780001278150003222A40D200904002000A434A
:10079000C0339B001A5131E01B4CFB1D1B781A0023
:1007A0000F231340083B9908174AFB1D1B781800BC
:1007B0000F230340083B9B0806339B00D3180433E8
:1007C0001B68FA1D1278100003220240D200FF209D
:1007D00090400200D2431A403B689B01FF20184022
:1007E000FB1D1B781D0003232B40DB0098400300FA
:1007F0001A438B1D9B00E31804331A60C046BD46A4
:1008000002B0B0BD00E100E000ED00E080B582B0D4
:1008100000AF00237B60334B1B68002B11D0324AA2
:10082000A0230121D150314B1968304B5A683B1D30
:100830002F4803F0F3FF0300012B02D072B600BE75
:10084000FDE72C4B1B68002B12D02B49A0228023E4
:10085000DB038B50254B9968244BDA683B1D2448F9
:1008600003F0DCFF0300012B02D072B600BEFDE7EF
:10087000224B1B68002B12D01F49A02280239B0310
:100880008B501A4B1969194B5A693B1D184803F0D4
:10089000C5FF0300012B02D072B600BEFDE7184B66
:1008A0001B68002B12D01449A02280231B038B50FD
:1008B0000E4B99690D4BDA693B1D0D4803F0AEFFF5
:1008C0000300012B02D072B600BEFDE77B68002B4F
:1008D00003D00C4B802252051A60C046BD4602B0C0
:1008E00080BDC046A0C0055000C00540F089FF1F74
:1008F000AF230000A0B0055B00B00540A0B0855A52
:10090000A0B0855904ED00E080B582B000AF0200D0
:10091000FB1D1A70FB1D1B78032B02D972B600BE9B
:10092000FDE71E4B1900132004F00EFA1B4B1900B3
:10093000122004F009FA194B1900122004F004FAED
:10094000164B1900122004F0FFF9FB1D1B7819004B
:100950001320FFF7EDFEFB1D1B7819001220FFF797
:10096000E7FEFB1D1B7819001220FFF7E1FEFB1DBF
:100970001B7819001220FFF7DBFE1320FFF7BEFEE5
:100980001220FFF7BBFE1220FFF7B8FE1220FFF780
:10099000B5FEC046BD4602B080BDC0460D08000091
:1009A00080B584B000AFB9607A600F23FB18021CD9
:1009B0001A700F23FB181B78012B15D002DC002BBB
:1009C00005D038E0022B1CD0032B27D033E01D4B81
:1009D00000221A601C4BBA681A601B4B7A685A6076
:1009E000184B1A4A1A6029E0194B00229A65164BD7
:1009F000BA689A60144B7A68DA60154B134A9A65A4
:100A00001CE0134B00225A650F4BBA681A610E4B5B
:100A10007A685A610E4B0D4A5A650FE00C4B002262
:100A2000DA64094BBA689A61074B7A68DA61084B55
:100A3000064ADA6402E072B600BEFDE7C046BD4673
:100A400004B080BD00C00540F089FF1F00010A000E
:100A500000B0054080B582B000AF04F08BFF234B9F
:100A60000422FF32DA61214B0422FF321A631F4B4A
:100A70000422FF325A631D4B0422FF329A631C4B3F
:100A80001A68FB1D1A701B4B1B685B00D9B2FB1D5B
:100A9000FA1D12780A431A70174B1B689B00D9B2D3
:100AA000FB1DFA1D12780A431A70144B1B68DB00F9
:100AB000D9B2FB1DFA1D12780A431A700B4B0022A3
:100AC000DA610A4B00221A63084B00225A63074B73
:100AD00000229A6304F056FFFB1D1B780F2253403F
:100AE000DBB21800BD4602B080BDC04600A0054084
:100AF00010F0805310F0005610F0805610F00057A0
:100B000080B582B000AF0200FB1D1A70FB1D1B7880
:100B10007F2B09D8064BFA1D127811001F220A40BC
:100B2000012191400A001A60C046BD4602B080BD56
:100B300000E100E0B0B582B000AF02003960FB1DFB
:100B40001A70FB1D1B787F2B28D82F4CFB1D1B78A0
:100B50005BB29B082C49FA1D127852B29208C0323F
:100B600092005258F91D0978080003210140C9007C
:100B7000FF2088400100C94311403A689201FF20DC
:100B80001040FA1D1278150003222A40D20090402E
:100B900002000A43C0339B001A5131E01B4CFB1D7D
:100BA0001B781A000F231340083B9908174AFB1DB6
:100BB0001B7818000F230340083B9B0806339B005B
:100BC000D31804331B68FA1D127810000322024068
:100BD000D200FF2090400200D2431A403B689B01A4
:100BE000FF201840FB1D1B781D0003232B40DB005A
:100BF000984003001A438B1D9B00E31804331A60CE
:100C0000C046BD4602B0B0BD00E100E000ED00E02E
:100C100080B582B000AF00237B600E4B8022D200F3
:100C20005A610D4B19683B1D0C48012203F0F6FD7B
:100C30000300012B02D072B600BEFDE77B68002BDB
:100C400003D0074B802252051A60C046BD4602B051
:100C500080BDC04600D00B40188AFF1FAF230000A4
:100C600004ED00E080B582B000AF00237B600E4A47
:100C70000E4B1B78DBB2D3770D4B19683B1D0D482B
:100C8000012203F0CBFD0300012B02D072B600BE9F
:100C9000FDE77B68002B03D0074B802252051A60CA
:100CA000C046BD4602B080BD00800040118AFF1FD3
:100CB000188AFF1FAF23000004ED00E080B500AFED
:100CC000194B8022D2029A60184B8022D2021A60FD
:100CD000174B01225A60174B01221A60144B022253
:100CE0005A60144B02221A60134B802252009A64FD
:100CF000124B802252001A60104B802252005A6020
:100D00000E4B802292001A610C4B802292005A6195
:100D10000A4B802292009A61084B80229200DA618D
:100D2000C046BD4680BDC04680F0004094F00048FB
:100D3000C0F00040D4F0004800C0054000D005409D
:100D400080B500AF0B4B00221A610A4B00225A619A
:100D5000084B00229A61074B0022DA61054B002202
:100D60001A60044B00225A60034B00229A64C0466A
:100D7000BD4680BD00D0054000C0054090B583B0A1
:100D800000AF78600A00BB1C1A803C4A3C4B1B78C1
:100D9000DBB20021D1543B4A394B1B78DBB28033A4
:100DA0005B01394999503748354B1B78DBB27A687B
:100DB00036495B01C3185B181A60324A304B1B7806
:100DC000DBB280335B01D3180633802292001A8095
:100DD0002C4A2B4B1B78DBB280335B01D3180433D6
:100DE00000221A802749264B1B78DBB2284A5B0178
:100DF000CB189B1801221A802249214B1B78DBB2A9
:100E0000244A5B01CB189B1804221A601D491C4B15
:100E10001B78DBB21C00BB1C1B889B0898B21E4AC7
:100E20006301CB189B18021C1A801649144B1B78BF
:100E3000DBB21C00BB1C1B889B0898B2174A6301DD
:100E4000CB189B18021C1A800E490D4B1B78DBB285
:100E5000134A5B01CB189B180A221A80074A084BD9
:100E60001B78DBB29721D154064A054B1B78DBB2C5
:100E7000D376C046BD4603B090BDC04600100240C8
:100E8000118AFF1F0080004074D00B40101000003A
:100E900014100000081000001E10000016100000C2
:100EA0001C10000090B583B000AF78600A00BB1C36
:100EB0001A803B4A3B4B1B78DBB20021D1543A49A4
:100EC000384B1B78DBB27A6880335B015A50364965
:100ED000344B1B78DBB2354A5B01CB189B18344A84
:100EE0001A60314A2F4B1B78DBB280335B01D31879
:100EF000063302221A802C4A2A4B1B78DBB280333D
:100F00005B01D318043301221A802749254B1B7833
:100F1000DBB2284A5B01CB189B1800221A802249B9
:100F2000204B1B78DBB2244A5B01CB189B180422B0
:100F30001A601D491B4B1B78DBB21C00BB1C1B88B5
:100F40009B0898B21D4A6301CB189B18021C1A809B
:100F50001549144B1B78DBB21C00BB1C1B889B087B
:100F600098B2174A6301CB189B18021C1A800E49CD
:100F70000C4B1B78DBB2134A5B01CB189B18082281
:100F80001A80074A074B1B78DBB29821D154064AD6
:100F9000044B1B78DBB2D376C046BD4603B090BD90
:100FA00000100240118AFF1F008000401010000056
:100FB00064D00B4014100000081000001E10000048
:100FC000161000001C10000080B582B000AF0200B7
:100FD000FB1D1A70BB1D0A1C1A70FB1D1B78032B0E
:100FE00002D972B600BEFDE7BB1D1B78072B02D9E4
:100FF00072B600BEFDE7012001F049FD0200194B69
:101000001A60184B1B68002B02D172B600BEFDE7B8
:1010100001F040F80200144B1A60134B1B68002BC0
:1010200002D172B600BEFDE7104BBA1D12781A70DD
:101030000F4B19000B2003F087FEFB1D1B781900D6
:101040000B20FFF777FD0B20FFF75AFD074B1B78AE
:10105000DAB2084B1100180003F05CFEC046BD4632
:1010600002B080BD148AFF1F188AFF1F118AFF1F5C
:10107000110C0000650C000080B500AF254B18680E
:1010800001235A420023002101F07BFE0300012BC3
:1010900002D072B600BEFDE71F4B1B78DBB2002BFF
:1010A00028D1032002F070FAFFF708FE022002F0B8
:1010B0006BFA1A49F4228C23DB058B50184B8222E1
:1010C00052001A64164B164A5268FF210A40012149
:1010D00091400A00013AFF210A409A65104B032211
:1010E000DA610F4B01225A620D4B09221A610A4B39
:1010F00001221A70074B186800230022002101F01A
:10110000E2FC0300012B02D072B600BEFDE7C04630
:10111000BD4680BD148AFF1F108AFF1F00A00F402C
:1011200000D00B4080B500AF184B186801235A421D
:101130000023002101F025FE0300012B02D072B62E
:1011400000BEFDE7124B1B78DBB2012B0ED1FFF77F
:10115000F7FD104B02221A610E4B00221A610E4A53
:10116000F4230021D1500A4B00221A70074B186853
:1011700000230022002101F0A6FC0300012B02D075
:1011800072B600BEFDE7C046BD4680BD148AFF1F93
:10119000108AFF1F00D00B4000A00F4080B588B020
:1011A00002AFF860B960BB1D1A801723FB1801223B
:1011B0001A70BB1D1B88002B0ED0BB1D1A88802304
:1011C0009B009A4208D8BB1D1B88032213409BB288
:1011D000002B01D1012300E00023002B02D172B6C5
:1011E00000BEFDE72C4B186801235A420023002162
:1011F00001F0C7FD0300012B02D072B600BEFDE76F
:10120000264B1B78DBB2012B31D1254B00229A6192
:10121000234B244A1A66224BFA689203920BC02190
:1012200089040A435A66BB1D1A88BB68110018005E
:10123000FFF7A4FD1A4BBA1D1288D200013A12051D
:10124000120DA821C9030A431A66174B1868012317
:101250005B42009300230122012100F033FF104B79
:101260008022D2005A611723FB1800221A700A4B01
:10127000186800230022002101F025FC0300012B47
:1012800002D072B600BEFDE71723FB181B781800CA
:10129000BD4606B080BDC046148AFF1F108AFF1FDE
:1012A00000D00B401F002800188AFF1F80B588B0AF
:1012B00002AFF860B960BB1D1A801723FB1801222A
:1012C0001A70BB1D1B88002B0ED0BB1D1A888023F3
:1012D0009B009A4208D8BB1D1B88032213409BB277
:1012E000002B01D1012300E00023002B02D172B6B4
:1012F00000BEFDE7324B186801235A42002300214B
:1013000001F03FFD0300012B02D072B600BEFDE7E5
:101310002C4B1B78DBB2012B3ED12B4B8022D20011
:101320009A61294B294A1A66274B06225A66284B8E
:10133000186801235B42009300230122012100F081
:10134000C1FE214B234A1A661F4BFA689203920B87
:10135000802189040A435A661B4BBA1D1288D200A9
:10136000013A1205120DB021C9030A431A66BB1DCA
:101370001A88BB6811001800FFF794FD144B186819
:1013800001235B42009300230122012100F09AFE19
:101390001723FB1800221A70094B1868002300223B
:1013A000002101F090FB0300012B02D072B600BEB9
:1013B000FDE71723FB181B781800BD4606B080BD5B
:1013C000148AFF1F108AFF1F00D00B40070008007F
:1013D000188AFF1F1F00280080B584B000AF0023CB
:1013E000BB604B4A4B4B1B78C0339B009B58DAB217
:1013F000FB1D1A70484B1B78002B00D17CE0474B3B
:101400001A68474B1B88DB00D318FB60FA1D454B5D
:101410001100180004F0CCFA0300022B0CD002DCFF
:10142000012B05D068E0042B09D0052B2BD063E0FD
:10143000FB680022DA805FE0FB680022DA80FB684C
:10144000DA88FB689B889A420CD2FB681A68FB68B2
:10145000DB88591C88B2F968C880D318FA1D127845
:101460001A7048E02C4B00221A702F4B1968082381
:10147000FB182E48022203F0D1F90300012B3AD0C9
:1014800072B600BEFDE7264B1B8801339AB2244B8F
:101490001A80234B1A88264B1B889BB29A4210D184
:1014A0001D4B00221A70204B19680823FB181F4897
:1014B000012203F0B3F90300012B25D072B600BE60
:1014C000FDE7164B1A68164B1B88DB00D3189B8868
:1014D000002B19D1104B00221A70134B19680823E6
:1014E000FB181248022203F099F90300012B0BD0DC
:1014F00072B600BEFDE7C046BB68002B05D00D4BA1
:10150000802252051A6000E0C046BD4604B080BD8E
:1015100000A00C402D8AFF1FACA70020B4AF002014
:10152000BCAF0020BAAF0020288AFF1FAF23000005
:10153000B8AF002004ED00E080B582B000AF00231A
:101540007B60254A254B1B78D377254B19683B1DBB
:101550002448042203F062F90300012B02D072B682
:1015600000BEFDE7204B1B889BB2002B1CD01F4BFD
:101570001B689B88002B0AD01D4B01221A701D4B43
:1015800000221A801C4B180004F006FA19E0144BD4
:1015900019683B1D1348022203F040F90300012B98
:1015A0000FD072B600BEFDE70D4B19683B1D0D480C
:1015B000012203F033F90300012B02D072B600BE02
:1015C000FDE77B68002B03D00C4B802252051A608C
:1015D000C046BD4602B080BD008000402C8AFF1F7F
:1015E000288AFF1FAF230000B8AF0020B4AF00204F
:1015F000ACA70020BCAF0020BAAF002004ED00E093
:1016000080B500AF044B054A1278110001228A40D0
:101610005A61C046BD4680BD00A00C402D8AFF1F08
:1016200080B500AF044B054A1278110001228A40B0
:101630005A61C046BD4680BD00A00C402E8AFF1FE7
:1016400080B582B000AF7860044B1B68022118009F
:1016500000F007FEC046BD4602B080BD288AFF1FCD
:10166000B0B584B002AF05000C0010001900FB1DDE
:101670002A1C1A70BB1D221C1A707B1D021C1A70BA
:101680003B1D0A1C1A70BB1D1B78072B02D972B6B2
:1016900000BEFDE77B1D1B783F2B02D972B600BE52
:1016A000FDE73B1D1B78072B02D972B600BEFDE794
:1016B0001C23FB181B78072B02D972B600BEFDE76E
:1016C0001823FB181B78072B02D972B600BEFDE762
:1016D0002023FB181B78072B02D972B600BEFDE74A
:1016E0003A1D1C23FB1812781B789A4202D172B65D
:1016F00000BEFDE71823FA182023FB1812781B7888
:101700009A4202D172B600BEFDE7012001F0BFF996
:101710000200984B1A60974B1B68002B02D172B6DF
:1017200000BEFDE79448954B009300230022012161
:1017300002F096FD0200924B1A60914B1B68002B41
:1017400002D172B600BEFDE700F0A4FC02008D4B92
:101750001A608C4B1B68002B02D172B600BEFDE7ED
:10176000894BBA1D12781A70884B3A1D12781A707C
:10177000874B1C22BA1812781A70BB1D1A78854B39
:101780001100180003F0C6FA8349BB1D1B781C2208
:10179000BA18127892008148844662441000804A48
:1017A0005B01CB189B1818607B4ABB1D1B788033EC
:1017B0005B01D318063300221A80774ABB1D1B78C1
:1017C00080335B01D318043301221A807249BB1D98
:1017D0001B78744A5B01CB189B1800221A806E4953
:1017E000BB1D1B78704A5B01CB189B1801221A6045
:1017F0006949BB1D1B786D4A5B01CB189B180A22F7
:101800001A806B48BB1D1B787A1D12783F210A4055
:10181000D2B2802149420A43D2B2C2543B1D1A7847
:10182000644B1100180003F0C5FB3B1D1A78624B96
:101830001100180003F0D8FB1C23FB181A785F4B2B
:101840001100180003F0D0FB5D4A1C23FB181B7825
:1018500040339B003221995059481C23FB181B78B8
:101860002022BA1812781106E022D2040A40554903
:101870000A4320339B001A5051482023FB181B7841
:10188000FA1D1278F02109010A434133FF339B000E
:101890001A504B4A2023FB181B782133FF339B003F
:1018A0004949995046482023FB181B781C22BA1836
:1018B0001278920001321106FC2292050A40434937
:1018C0000A430133FF339B001A503D4A3B1D1B78EE
:1018D00040339B003221995039483B1D1B78182218
:1018E000BA1812781106E022D2040A4038490A4395
:1018F00020339B001A5032481823FB181B78FA1D1E
:101900001278F02109010A434133FF339B001A503A
:101910002B4A1823FB181B782133FF339B002D49DA
:101920009950274A1823FB181B780133FF339B007B
:1019300029499950294B3A1D1278012191401C22C6
:10194000BA1812780120904002000A431A60244B12
:101950003A1D1278012191400A001A60214B1C2285
:10196000BA181278012191400A001A60C046BD469B
:1019700002B0B0BD208AFF1F28C100004116000040
:10198000248AFF1F288AFF1F2C8AFF1F2D8AFF1F12
:101990002E8AFF1F391500000080004000A20C4075
:1019A0001010000014100000081000001C100000AF
:1019B00000100240D913000001160000211600009B
:1019C00000A00C40020E0300222200000100C00013
:1019D000010F800022240402810F001E24A00C4865
:1019E00020A00C4830A00C4880B500AF1F4B1868F1
:1019F00001235A420023002101F0C3F90300012B07
:101A000002D072B600BEFDE7194B1B78DBB2002B8B
:101A10001CD1322001F0B8FD164B802212069A60CC
:101A2000154B802212061A60144B80225200DA678E
:101A3000134BC022D2009A62114BC022D200DA624C
:101A4000642001F0A1FD0A4B01221A70074B1868AF
:101A500000230022002101F036F80300012B02D000
:101A600072B600BEFDE7C046BD4680BD208AFF1F9E
:101A70001C8AFF1F00F1004014F1004800E00540FF
:101A800000B0054080B500AF174B186801235A42DB
:101A90000023002101F075F90300012B02D072B67A
:101AA00000BEFDE7114B1B78DBB2012B0BD1104BB5
:101AB00000229A620E4B0022DA620E4B0022DA6795
:101AC0000A4B00221A70084B1868002300220021DC
:101AD00000F0F9FF0300012B02D072B600BEFDE753
:101AE000C046BD4680BDC046208AFF1F1C8AFF1F1E
:101AF00000B0054000E0054090B589B002AFB96084
:101B000011007B600E23FB18021C1A800C23FB18AB
:101B10000A1C1A801723FB1801221A700E23FB18C7
:101B20001B88002B02D172B600BEFDE7654B18681A
:101B300001235A420023002101F023F90300012B65
:101B400002D072B600BEFDE75F4B1B78DBB2012B03
:101B500000D0A3E05D4B7A681A605D4B2822BA186A
:101B600012881A800C23FB181B88002B29D00C2309
:101B7000FB181B881022BA18B968564803F0CCFF2E
:101B80005549564B1B78534A80335B015A50524992
:101B9000524B1B783A6990B2514A5B01CB189B18A3
:101BA000021C1A804C494D4B1B783A6990B24D4A41
:101BB0005B01CB189B18021C1A80474A474B1B78C5
:101BC000D376494B18680E23FB181A8801235B4211
:101BD00000930023042102F08DFB0300012B02D0AF
:101BE00072B600BEFDE7404B1C6801F025FE020006
:101BF00001235B42009300230121200002F07AFBC5
:101C00000300012B02D072B600BEFDE70C23FB18C7
:101C10001B88002B0AD0354B186801235B420093C8
:101C200000230022042100F04DFA09E0304B01228C
:101C30001A70304B00221A802F4B180003F0ACFEB4
:101C40002A4B186801235B420093002300220321E2
:101C500000F038FA254B1B680021180000F0DAFA72
:101C600002000123134003D01723FB1800221A702F
:101C70001D4B186801235B420093002300220321BF
:101C800002F038FB0300012B02D072B600BEFDE764
:101C9000164B1B680721180000F0BCFA094B1868A6
:101CA00000230022002100F00EFF0300012B02D0D0
:101CB00072B600BEFDE71723FB181B781800BD465F
:101CC00007B090BD208AFF1F1C8AFF1FB4AF002001
:101CD000B8AF0020B0A70020008000402C8AFF1F72
:101CE0001E10000016100000248AFF1F288AFF1F04
:101CF000ACA70020BCAF0020BAAF002080B500AF79
:101D0000184B02225A60184B02221A60174B80228D
:101D100012045A60164B802212041A60134B802260
:101D200052035A60124B802252031A600F4B8022DA
:101D3000D2025A600E4B8022D2021A600D4B8022D2
:101D400052005A600C4B80225200DA650A4B802206
:101D500052001A65084B802252009A64C046BD4664
:101D600080BDC04680F0004094F0004840F0004044
:101D700054F0004800C0054000B0054080B582B076
:101D800000AF0200FB1D1A70FB1D1B78012B0CD04D
:101D900002DC002B05D017E0022B0BD0032B0ED05A
:101DA00012E00D4B02229A6011E00C4B80221204CB
:101DB0009A600CE0094B802252039A6007E0074BBF
:101DC0008022D2029A6002E072B600BEFDE7C046F1
:101DD000BD4602B080BDC04680F0004040F00040EB
:101DE00080B582B000AF0200FB1D1A70FB1D1B788E
:101DF000012B0CD002DC002B05D017E0022B0BD0FE
:101E0000032B0ED012E00D4B02225A6011E00C4B56
:101E1000802212045A600CE0094B802252035A605F
:101E200007E0074B8022D2025A6002E072B600BE81
:101E3000FDE7C046BD4602B080BDC04680F0004010
:101E400040F0004080B582B000AF0200FB1D1A7068
:101E5000FB1D1B78012B0CD002DC002B05D017E0FA
:101E6000022B0BD0032B0ED012E00D4B0222DA60B6
:101E700011E00C4B80221204DA600CE0094B802246
:101E80005203DA6007E0074B8022D202DA6002E0F8
:101E900072B600BEFDE7C046BD4602B080BDC0467A
:101EA00080F0004040F0004000F038F80F48104942
:101EB000104A121A03F0A1FE0C480F4988600F481F
:101EC0000F49104A121A03F098FE0F4800210F4ADA
:101ED000121A03F099FE0E48A5210E4A121A03F0B9
:101EE00093FE00F0CBF803F0B9FEFEE70088FF1F79
:101EF000000000004089FF1F00ED00E04089FF1F47
:101F000000C30000F089FF1FF089FF1F04B000200C
:101F10000080FF1F0088FF1F00BEFDE780B500AFF7
:101F2000474BFA2292009A60454B464A1A6046494E
:101F300082235B0080225202CA50434984235B0003
:101F40008A225200CA50404A80235B000F21D150A0
:101F5000C0463E4B1B68002BFBD03B4AC1239B0075
:101F60003B49D150384AC2239B000021D150364A08
:101F7000C0239B000721D150C046364B1B68002B65
:101F8000FBD03149344A80239B028B502E4AC12317
:101F9000DB003249D1502C4AC023DB003049D150FC
:101FA000C046304B1B68002BFBD0274B2E4A5A6192
:101FB000C0462E4B1B68062BFBD1234A80239B0077
:101FC0000021D150C0462A4B1B68002BFBD11E4973
:101FD00081239B0080225202CA501B4A82239B000D
:101FE0000121D150184A80239B000721D150C046BF
:101FF0001F4B1B68002BFBD0134B1E4A9A611E49D6
:10200000B4235B008022D205CA501B49B6235B0073
:102010008022D205CA501849B8235B008022D2051D
:10202000CA501549BA235B008022D205CA50124912
:10203000BC235B008022D205CA50C046BD4680BD8D
:1020400000600740A021000000B0074000B1075C1D
:102050000100020000B3075C040600000103080051
:102060000300030400B6075C0200010610B0375CF1
:1020700000B2075C0700000200A0074080B500AF77
:10208000024B034A1A60C046BD4680BDC0AF002067
:1020900000A24A0480B582B000AF182000F040FBD7
:1020A00003007B607B68002B07D07B6800221A60EE
:1020B0007B680433180000F0A8F97B681800BD465F
:1020C00002B080BD80B58CB000AFF860B9607A60B6
:1020D0003B60FB687B620023BB6200233B62FB68C2
:1020E000002B02D172B600BEFDE7BB681B0E1B06BB
:1020F00002D072B600BEFDE7BB68002B02D172B6FB
:1021000000BEFDE701F026FF031E02D1BB6B002BD2
:1021100001D1012300E00023002B02D172B600BEE2
:10212000FDE701F0F1FA7B6A1B68FB613A68B96868
:10213000FB69180000F04AF90300BB61BB69002B82
:102140000ED0FB69FB620023BB637B68002B28D0A9
:102150007B6A1B68BA68D2431A407B6A1A6020E027
:10216000BB6B002B02D1FB69FB621AE07B68002B82
:1021700004D0BB6A802252041343BB623B68002B2D
:1021800004D0BB6A8022D2041343BB627B6A181D51
:10219000BA68BB6A1343BA6B190001F083FC0023D1
:1021A000FB6201F0BDFA03007B61BB6B002B2CD0FE
:1021B0007B69002B01D100F053FA01F0A3FF03006B
:1021C000FB62FA6A80239B0413401AD103F0D2FB0E
:1021D0007B6A1B68FB623A68B968FB6A180000F00A
:1021E000F5F8031E09D07B68002B06D07B6A1B68BC
:1021F000BA68D2431A407B6A1A6003F0C3FB00231B
:102200003B62FB6A1B021B0AFB62FB6A1800BD46AD
:102210000CB080BD80B584B000AF786039607B6859
:10222000FB607B68002B02D172B600BEFDE73B6805
:102230001B0E1B0602D072B600BEFDE703F09AFB30
:10224000FB681B68BB60FB681B683A68D2431A4096
:10225000FB681A6003F096FBBB681800BD4604B02B
:1022600080BD80B58CB000AF786039600023BB6260
:102270007B683B6200237B627B68002B02D172B6D5
:1022800000BEFDE73B681B0E1B0602D072B600BE07
:10229000FDE73B6A0433FB61FB690833BB6101F076
:1022A00033FAFB69DB68FB623B6A1A683B681A43D6
:1022B0003B6A1A603DE0FB6A5B687B61FB6A1B68F6
:1022C0003B6100237B623B691B0E1B06FB603B6985
:1022D0001B021B0A3B61FA688023DB04134007D111
:1022E0003B6A1B683A6913400BD001237B6208E00C
:1022F0003B6A1B683A691A403B699A4201D1012343
:102300007B627B6A002B12D0FA6880235B04134047
:1023100003D0BA6A3B691343BB623B6A1B688022E5
:1023200092041A43FB6A1100180001F071FC7B69EA
:10233000FB62FA6ABB699A42BDD13B6A1B68BA6A02
:10234000D2431A403B6A1A6001F0EAF93B6A1B6803
:102350001800BD460CB080BD80B584B000AF786079
:102360007B68FB60FB680433BB6001F0CDF910E0D3
:10237000BB68DA68BB6808339A4202D172B600BE05
:10238000FDE7BB68DA6880239B041900100001F0A8
:102390003FFCBB681B68002BEAD1FB68180000F00B
:1023A0004DFA01F0BDF9C046BD4604B080BD80B510
:1023B00082B000AF786039603A687B68110018001D
:1023C000FFF74FFFC046BD4602B080BD80B586B066
:1023D00000AFF860B9607A6000237B617B68002BF6
:1023E00006D1FB68BA6813400AD001237B6107E07D
:1023F000FB68BA681A40BB689A4201D101237B612D
:102400007B691800BD4606B080BD80B582B000AFC4
:1024100078607B6808331A007B685A607B68012209
:1024200052429A607B6808331A007B68DA607B68E6
:1024300008331A007B681A617B6800221A60C04664
:10244000BD4602B080BD80B582B000AF78607B68C9
:1024500000221A61C046BD4602B080BD80B584B07E
:1024600000AF786039607B685B68FB603B68FA6846
:102470005A60FB689A683B689A60FB689B683A6898
:102480005A60FB683A689A603B687A681A617B68B0
:102490001B685A1C7B681A60C046BD4604B080BDEC
:1024A00080B584B000AF786039603B681B68BB6062
:1024B000BB68013303D17B681B69FB600CE07B6860
:1024C0000833FB6002E0FB685B68FB60FB685B68ED
:1024D0001A68BB689A42F6D9FB685A683B685A602A
:1024E0003B685B683A689A603B68FA689A60FB6888
:1024F0003A685A603B687A681A617B681B685A1CA4
:102500007B681A60C046BD4604B080BD80B584B00B
:1025100000AF78607B681B69FB607B685B687A68EA
:1025200092689A607B689B687A6852685A60FB6818
:102530005A687B689A4203D17B689A68FB685A6044
:102540007B6800221A61FB681B685A1EFB681A60D0
:10255000FB681B681800BD4604B080BD80B584B020
:1025600000AFF860B9607A60FB68043BFB60FB6811
:10257000802252041A60FB68043BFB60BA68FB6867
:102580001A60FB68043BFB60084AFB681A60FB6842
:10259000143BFB607A68FB681A60FB68203BFB60B9
:1025A000FB681800BD4604B080BDC046B1250000E0
:1025B00080B500AF72B600BEFDE70000000000006D
:1025C0000B4A13681868203080F30988022080F3D2
:1025D0001488BFF36F8F3FBCAE4608BC04BC62B624
:1025E0001847C046C046C046C046C046C046C04662
:1025F000448A0020C046C04680B500AF144A01237B
:102600005B421100180002F09FFB124A02235B425A
:102610001100180002F098FB0F4B0F4A1268FF21BF
:1026200009040A431A600C4B0B4A1268FF21090681
:102630000A431A6000F05CF8084B00221A60FFF7AA
:10264000BFFFFFF7B5FF00231800BD4680BDC046A1
:10265000C92600008126000020ED00E04089FF1F10
:1026600080B500AF054B802252051A60BFF34F8F33
:10267000BFF36F8FC046BD4680BDC04604ED00E08D
:10268000EFF309800E4B1A6820381060F0C0444602
:102690004D4656465F46F0C008B572B601F090F957
:1026A00062B60CBC116808681030F0C8A046A94694
:1026B000B246BB4680F309882038F0C81847C046A8
:1026C000448A0020C046C04680B500AF03F052F9EE
:1026D00001F0C0F8031E03D0044B802252051A609B
:1026E00003F050F9C046BD4680BDC04604ED00E091
:1026F000B0B500AF074C084B1B68C8211800FDF7A8
:1027000087FE0300013B2360044B07221A60C0468A
:10271000BD46B0BD14E000E0C0AF002010E000E016
:1027200080B588B000AF786000237B6100F0ECFFDB
:102730003D4B1B68002B04D100F0BAF83A4B012244
:102740001A607B68002B0DD008231A007B689B1849
:102750007B607B680722134004D07B680722934389
:1027600008337B607B68002B56D07B682F4A9342EE
:1027700052D82F4BBB612E4B1B68FB6104E0FB69F9
:10278000BB61FB691B68FB61FB695A687B689A4205
:1027900003D2FB691B68002BF1D1FA69254B9A42E1
:1027A0003AD0BB691B6808229B187B61FB691A68D9
:1027B000BB691A60FB695A687B68D31A0822520009
:1027C000934222D9FA697B68D318FB60FB695A6887
:1027D0007B68D21AFB685A60FB697A685A60FB68AA
:1027E0005B68BB60124B3B6102E03B691B683B616D
:1027F0003B691B685A68BB689A42F6D33B691A6802
:10280000FB681A603B69FA681A600B4B1A68FB692F
:102810005B68D21A084B1A6000F082FF7B691800CF
:10282000BD4608B080BDC046408A0020F7FF0000CA
:10283000308A0020388A00204489FF1F80B586B086
:1028400000AF78607B683B617B68002B27D0082352
:102850005B423A69D3183B613B69FB6000F054FF6F
:10286000FB685B68BB60104B7B6102E07B691B68A7
:102870007B617B691B685A68BB689A42F6D37B69A7
:102880001A68FB681A607B69FA681A60FB685A6804
:10289000064B1B68D218054B1A6000F041FFC0467A
:1028A000BD4606B080BDC046308A00204489FF1F67
:1028B00080B582B000AF0E4B072293437B600D4B77
:1028C0007A681A600B4B00225A600B4B0B4A5A6015
:1028D000094B00221A607B683B603B68074A5A60DC
:1028E0003B68054A1A60C046BD4602B080BDC0467E
:1028F000388AFF1F308A0020388A0020F8FF000045
:1029000080B584B000AF786039607B68FB60FB689D
:10291000002B02D172B600BEFDE703F02BF8FB6876
:102920001A68FB68D96BFB681B6C4B43D218FB68B9
:102930005A60FB6800229A63FB681A68FB689A6019
:10294000FB681A68FB68DB6B591EFB681B6C4B430A
:10295000D218FB68DA60FB684422FF219954FB68B7
:102960004522FF2199543B68002B0DD1FB681B6960
:10297000002B13D0FB681033180001F0EBF8031E96
:102980000CD0FFF76DFE09E0FB6810331800FFF76D
:102990003CFDFB6824331800FFF737FD02F0F2FF1F
:1029A00001231800BD4604B080BD90B58BB002AFC6
:1029B000F860B960FB1D1A70FB68002B02D172B67B
:1029C00000BEFDE7BB68002B02D10023FB6103E0E2
:1029D000FB68BA685343FB61FB694C331800FFF78F
:1029E0009FFE0300BB61BB69002B0CD0BB694C335D
:1029F0007B61FB1D1C787A69B968F868BB69009334
:102A0000230000F005F8BB691800BD4609B090BD71
:102A100080B584B000AFF860B9607A601A00FB1C22
:102A20001A70BB68002B03D1BB69BA691A6002E057
:102A3000BB697A681A60BB69FA68DA63BB69BA680D
:102A40001A64BB6901211800FFF75AFFBB69002215
:102A50009A64C046BD4604B080BD80B582B000AF68
:102A600078607B68002B0ED07B6800225A607B6800
:102A700000221A607B680022DA6078680023002256
:102A8000002100F020F8C046BD4602B080BD80B5F0
:102A900086B000AF0200FB1D1A7001237B6100238A
:102AA0003B61FB1D1A7839697B691800FFF77DFFD0
:102AB0000300FB60FB681800FFF7CFFFFB681800FE
:102AC000BD4606B080BD80B58AB000AFF860B96081
:102AD0007A603B6000237B62FB683B623B6A002BB1
:102AE00002D172B600BEFDE7BB68002B03D13B6A82
:102AF0001B6C002B01D1012300E00023002B02D12D
:102B000072B600BEFDE73B68022B03D13B6ADB6B6C
:102B1000012B01D1012300E00023002B02D172B66A
:102B200000BEFDE701F016FA031E02D17B68002B00
:102B300001D1012300E00023002B02D172B600BEB8
:102B4000FDE702F017FF3B6A9A6B3B6ADB6B9A4228
:102B500002D33B68022B2DD13A68B9683B6A180052
:102B600000F0F6F90300FB613B6A9B6C002B0AD076
:102B70003A683B6A1100180000F073FB031E15D081
:102B8000FFF76EFD12E03B6A5B6A002B09D03B6ADF
:102B90002433180000F0DEFF031E07D0FFF760FDAE
:102BA00004E0FB69002B01D0FFF75AFD02F0EAFEBA
:102BB00001235CE07B68002B03D102F0E3FE0023DD
:102BC00055E07B6A002B06D11423FB18180001F096
:102BD00079F801237B6202F0D5FE00F095FD02F04A
:102BE000C9FE3B6A44229B5C5BB2013303D13B6A62
:102BF0004422002199543B6A45229B5C5BB201331D
:102C000003D13B6A45220021995402F0BBFE3A1DD4
:102C10001423FB181100180001F06EF8031E1FD1D9
:102C20003B6A180000F0A9FA031E12D03B6A103369
:102C30007A681100180000F015FF3B6A180000F0D8
:102C400018FA00F06DFD031E00D07AE7FFF708FDCB
:102C500077E73B6A180000F00CFA00F061FD70E7BE
:102C60003B6A180000F005FA00F05AFD0023180036
:102C7000BD460AB080BD80B588B000AFF860B960CD
:102C80007A603B60FB68BB61BB69002B02D172B606
:102C900000BEFDE7BB68002B03D1BB691B6C002B9A
:102CA00001D1012300E00023002B02D172B600BE47
:102CB000FDE73B68022B03D1BB69DB6B012B01D124
:102CC000012300E00023002B02D172B600BEFDE715
:102CD00002F050FE03007B61BB699A6BBB69DB6B42
:102CE0009A4202D33B68022B42D11323FB18BA69E4
:102CF0004521525C1A703A68B968BB69180000F047
:102D000027F91323FB181B785BB2013324D1BB696D
:102D10009B6C002B0ED03A68BB691100180000F0C4
:102D2000A0FA031E21D07B68002B1ED07B680122F5
:102D30001A601AE0BB695B6A002B16D0BB692433AA
:102D4000180000F007FF031E0FD07B68002B0CD08B
:102D50007B6801221A6008E01323FB181B780133FB
:102D6000DBB259B2BB69452299540123FB6101E0F2
:102D70000023FB6102F006FEFB691800BD4608B0A7
:102D800080BD80B58AB000AFF860B9607A603B6002
:102D900000237B62FB683B623B6A002B02D172B668
:102DA00000BEFDE7BB68002B03D13B6A1B6C002B08
:102DB00001D1012300E00023002B02D172B600BE36
:102DC000FDE701F0C7F8031E02D17B68002B01D19B
:102DD000012300E00023002B02D172B600BEFDE704
:102DE00002F0C8FD3B6A9B6BFB61FB69002B3AD08C
:102DF0003B6ADB68BB61BA683B6A1100180000F0EF
:102E000012F93B68002B1AD1FB695A1E3B6A9A6380
:102E10003B6A1B68002B04D101F08AF902003B6A6F
:102E20005A603B6A1B69002B19D03B6A10331800AB
:102E300000F090FE031E12D0FFF712FC0FE03B6A79
:102E4000BA69DA603B6A5B6A002B08D03B6A2433BC
:102E5000180000F07FFE031E01D0FFF701FC02F016
:102E600091FD012370E07B68002B03D102F08AFD05
:102E7000002369E07B6A002B06D11023FB181800A1
:102E800000F020FF01237B6202F07CFD00F03CFC9F
:102E900002F070FD3B6A44229B5C5BB2013303D1BC
:102EA0003B6A4422002199543B6A45229B5C5BB2F9
:102EB000013303D13B6A45220021995402F062FD9F
:102EC0003A1D1023FB181100180000F015FF031E17
:102ED0002CD13B6A180000F03AF9031E1FD03B6A60
:102EE0001B68002B08D102F045FD3B6A5B681800A7
:102EF00001F04CF802F046FD3B6A24337A68110079
:102F0000180000F0AFFD3B6A180000F0B2F800F0C6
:102F100007FC031E00D063E7FFF7A2FB60E73B6AF4
:102F2000180000F0A6F800F0FBFB59E73B6A180018
:102F300000F09FF800F0F4FB3B6A180000F007F97E
:102F4000031E00D14CE700231800BD460AB080BD27
:102F500080B586B000AFF860B9607A6000237B610D
:102F6000FB689B6B3B61FB681B6C002B0ED1FB6805
:102F70001B68002B4ED1FB685B68180001F064F8F9
:102F800003007B61FB6800225A6043E07B68002BF2
:102F900019D1FB689868FB681A6CBB68190002F0CD
:102FA0002CFEFB689A68FB681B6CD218FB689A6061
:102FB000FB689A68FB685B689A422BD3FB681A68C7
:102FC000FB689A6026E0FB68D868FB681A6CBB68EF
:102FD000190002F012FEFB68DA68FB681B6C5B42AA
:102FE000D218FB68DA60FB68DA68FB681B689A42F3
:102FF00007D2FB685A68FB681B6C5B42D218FB68FF
:10300000DA607B68022B05D13B69002B02D03B695B
:10301000013B3B613B695A1CFB689A637B69180062
:10302000BD4606B080BD80B582B000AF7860396023
:103030007B681B6C002B18D07B68DA687B681B6C84
:10304000D2187B68DA607B68DA687B685B689A42D2
:1030500003D37B681A687B68DA607B68D9687B6811
:103060001A6C3B68180002F0C8FDC046BD4602B0AD
:1030700080BD80B584B000AF786002F07BFC0F2388
:10308000FB187A684521525C1A7022E07B689B6CC1
:10309000002B09D07B680021180000F0E2F8031E25
:1030A0000FD000F089FE0CE07B685B6A002B17D024
:1030B0007B682433180000F04DFD031E01D000F0A2
:1030C0007BFE0F23FB181B78013BDAB20F23FB18A2
:1030D0001A700F23FB181B785BB2002BD6DC00E0C4
:1030E000C0467B684522FF21995402F04BFC02F058
:1030F00041FC0E23FB187A684421525C1A7014E0DC
:103100007B681B69002B17D07B681033180000F018
:1031100021FD031E01D000F04FFE0E23FB181B788B
:10312000013BDAB20E23FB181A700E23FB181B7832
:103130005BB2002BE4DC00E0C0467B684422FF2148
:10314000995402F01FFCC046BD4604B080BD80B556
:1031500084B000AF786002F00DFC7B689B6B002BA5
:1031600002D10123FB6001E00023FB6002F00AFCB6
:10317000FB681800BD4604B080BD80B584B000AFC8
:10318000786002F0F7FB7B689A6B7B68DB6B9A4296
:1031900002D10123FB6001E00023FB6002F0F2FB9F
:1031A000FB681800BD4604B080BD000080B584B047
:1031B00000AF786039600023FB6015E00E4BFA68C1
:1031C000D200D358002B0CD10B4BFA68D2003968CF
:1031D000D150094AFB68DB00D31804337A681A60BF
:1031E00005E0FB680133FB60FB68072BE6D9C046AE
:1031F000BD4604B080BDC046C4AF002080B586B0D7
:1032000000AFF860B9607A60FB687B6102F0B2FBE6
:103210007B6944229B5C5BB2013303D17B6944220E
:10322000002199547B6945229B5C5BB2013303D139
:103230007B6945220021995402F0A4FB7B699B6BBA
:10324000002B06D17B6924337A68B968180000F036
:1032500059FC7B691800FFF70CFFC046BD4606B05D
:1032600080BD80B586B000AF786039607B689B6CAC
:103270003B6100237B613B69002B02D172B600BE2B
:10328000FDE73B699A6B3B69DB6B9A4202D372B6EE
:1032900000BEFDE73B699A6B3B69DB6B9A422AD221
:1032A0000F23FB183A694521525C1A703A68391DA0
:1032B0003B691800FFF74CFE03007B610F23FB18EE
:1032C0001B785BB201330DD13B695B6A002B12D0D6
:1032D0003B692433180000F03DFC031E0BD0012392
:1032E0007B6108E00F23FB181B780133DBB259B276
:1032F0003B69452299547B691800BD4606B080BDE4
:1033000090B58DB004AFF860B9603B60BB1D1A800A
:10331000BB1D1B889B001800FFF702FA03007B61AE
:103320007B69002B10D07420FFF7FAF90300FB61D2
:10333000FB69002B03D0FB697A691A6306E07B699D
:103340001800FFF77BFA01E00023FB61FB69002B0B
:1033500016D0BB1D1A883C68B968F868002303932F
:10336000FB6902937B6B01933B6B0093230000F09E
:103370000FF8FB69180000F0A3F80123BB6102E01D
:1033800001235B42BB61BB691800BD4609B090BD1B
:1033900080B586B000AFF860B9607A603B60BB6A08
:1033A000186B7B689B001A00A52102F02DFCBB6AFC
:1033B0001A6B7B6841498C4663449B00D3183B6180
:1033C0003B69072293433B613B690722134002D0CC
:1033D00072B600BEFDE700237B6113E0BA687B692B
:1033E000D3181878BA6A34217B69D3185B18021C89
:1033F0001A70BA687B69D3181B78002B06D07B69DA
:1034000001337B617B690F2BE8D900E0C046BB6AC2
:103410004322002199543B6A072B01D907233B62C1
:10342000BB6A3A6ADA62BB6A3A6A5A64BB6A0022C9
:103430009A64BB6A04331800FFF705F8BB6A1833B7
:103440001800FFF700F8BB6ABA6A1A613B6A0822E3
:10345000D21ABB6A9A61BB6ABA6A5A6200237B615C
:103460000AE0BA6A7B6912339B00D3180433002246
:103470001A607B6901337B617B69072BF1D9BB6AD9
:103480000022DA66BB6A702200219954BB6A71225D
:10349000002199543A68F9683B691800FFF75EF813
:1034A0000200BB6A1A607B6A002B02D07B6ABA6A90
:1034B0001A60C046BD4606B080BDC046FFFFFF3F54
:1034C00080B582B000AF786002F054FA284B1B68D8
:1034D0005A1C274B1A60274B1B68002B09D1254B20
:1034E0007A681A60224B1B68012B10D100F07EFC19
:1034F0000DE0214B1B68002B09D11E4B1B68DA6ABB
:103500007B68DB6A9A4202D81A4B7A681A601B4BB6
:103510001B685A1C194B1A607B68DA6A184B1B68C7
:103520009A4203D97B68DA6A154B1A607B68DA6ABB
:1035300013009B009B189B00124A9A187B68043367
:1035400019001000FEF78AFF02F01CFA0A4B1B68F4
:10355000002B08D0074B1B68DA6A7B68DB6A9A424B
:1035600001D2FFF77DF8C046BD4602B080BDC0461F
:10357000588B0020448A0020648B0020748B00202C
:10358000608B0020488A002080B584B000AF78604E
:103590000023FB607B68002B11D00D4B1B68002BB8
:1035A00002D072B600BEFDE700F0AEF87B680021E5
:1035B000180000F0CFFD00F0B3F80300FB60FB68DB
:1035C000002B01D1FFF74CF8C046BD4604B080BDCA
:1035D000808B002080B584B000AF786002F0CAF91B
:1035E0007B68002B02D1244B1B6800E07B68FB60EA
:1035F000FB6804331800FEF789FFFB689B6A002B09
:1036000004D0FB6818331800FEF780FFFB681A1D12
:103610001A4B11001800FEF721FF02F0B3F9184B06
:103620001B68002B05D002F0A5F900F06FFC02F03A
:10363000A9F9114B1B68FA689A4219D1104B1B6803
:10364000002B09D00F4B1B68002B02D072B600BEB6
:10365000FDE7FFF705F80BE0084B1A680A4B1B68FB
:103660009A4203D1044B00221A6001E000F0A8F94D
:10367000C046BD4604B080BD448A0020448B002073
:10368000648B0020808B0020588B002080B584B094
:1036900002AF80235A0016491648174B01930023A6
:1036A00000930023FFF72CFE03007B607B68012B57
:1036B00003D100F0A9FD03007B607B68012B0DD1D5
:1036C00072B60E4B012252421A600D4B01221A6053
:1036D0000C4B00221A60FEF78FFF05E07B68013378
:1036E00002D172B600BEFDE7C046BD4602B080BD45
:1036F0003CC10000CD3D00007C8B0020788B002079
:10370000648B00205C8B002080B500AF034B1B68EE
:103710005A1C024B1A60C046BD4680BD808B0020FB
:1037200080B584B000AF0023FB600023BB603A4B40
:103730001B68002B02D172B600BEFDE702F01AF939
:10374000354B1B685A1E344B1A60334B1B68002BD9
:103750005BD1324B1B68002B57D02FE0304BDB681E
:10376000DB68FB60FB6818331800FEF7CFFEFB68D0
:1037700004331800FEF7CAFEFB68DA6A294B1B689F
:103780009A4203D9FB68DA6A264B1A60FB68DA6A48
:1037900013009B009B189B00234A9A18FB68043374
:1037A00019001000FEF75AFEFB68DA6A1F4B1B680F
:1037B000DB6A9A4202D31E4B01221A60184B1B6827
:1037C000002BCBD1FB68002B01D000F09FFB194BE5
:1037D0001B687B607B68002B0FD000F03BF8031E5A
:1037E00002D0134B01221A607B68013B7B607B682F
:1037F000002BF2D10F4B00221A600D4B1B68002BDF
:1038000003D00123BB60FEF72BFF02F0BBF8BB68BF
:103810001800BD4604B080BD808B0020588B00206E
:10382000188B0020608B0020488A0020448A0020EA
:103830006C8B0020688B002080B582B000AF044BF9
:103840001B687B607B681800BD4602B080BDC04627
:103850005C8B002080B586B000AF00237B614D4BB0
:103860001B68002B00D084E04B4B1B6801333B618D
:10387000494B3A691A603B69002B18D1474B1B68CA
:103880001B68002B02D072B600BEFDE7434B1B68DD
:10389000FB60434B1A68414B1A60414BFA681A604F
:1038A000404B1B685A1C3F4B1A6000F02FFB3E4BED
:1038B0001B683A699A424ED3384B1B681B68002B31
:1038C00001D1012300E00023002B04D0364B01225C
:1038D00052421A603FE0314B1B68DB68DB68BB601B
:1038E000BB685B687B603A697B689A4203D22E4B67
:1038F0007A681A602FE0BB6804331800FEF706FEF2
:10390000BB689B6A002B04D0BB6818331800FEF715
:10391000FDFDBB68DA6A254B1B689A4203D9BB6878
:10392000DA6A224B1A60BB68DA6A13009B009B18A4
:103930009B001F4A9A18BB68043319001000FEF759
:103940008DFDBB68DA6A1B4B1B68DB6A9A42B3D3F6
:1039500001237B61B0E7174B1B68DA6A1449130037
:103960009B009B189B005B58012B07D901237B61AF
:1039700004E0114B1B685A1C0F4B1A600F4B1B685D
:10398000002B01D001237B617B691800BD4606B086
:1039900080BDC046808B00205C8B0020108B0020F7
:1039A000148B0020708B0020788B0020608B00200F
:1039B000488A0020448A0020688B00206C8B0020FD
:1039C00080B582B000AF224B1B68002B03D0214B87
:1039D00001221A6038E01F4B00221A601E4B1B6840
:1039E0007B6008E07B68002B02D172B600BEFDE769
:1039F0007B68013B7B6019497A6813009B009B1828
:103A00009B005B58002BEDD07A6813009B009B183D
:103A10009B00124A9B183B603B685B685A683B6896
:103A20005A603B685A683B6808339A4204D13B6845
:103A30005B685A683B685A603B685B68DA68084BA9
:103A40001A60054B7A681A60C046BD4602B080BD58
:103A5000808B00206C8B0020608B0020488A002027
:103A6000448A002080B582B000AF786039607B68FE
:103A7000002B02D172B600BEFDE7094B1B6818335C
:103A80001A007B6811001800FEF70AFD3B6801214F
:103A9000180000F05FFBC046BD4602B080BDC046C6
:103AA000448A002080B584B000AFF860B9607A60C5
:103AB000FB68002B02D172B600BEFDE70F4B1B68FE
:103AC000002B02D172B600BEFDE70D4B1B68BA6831
:103AD000802109060A439A61094B1B6818331A00B2
:103AE000FB6811001800FEF7B9FC7B680121180083
:103AF00000F030FBC046BD4604B080BD808B002086
:103B0000448A002080B584B000AFF860B9607A6064
:103B1000FB68002B02D172B600BEFDE70C4B1B68A0
:103B200018331A00FB6811001800FEF797FC7B6839
:103B3000002B02D001235B42BB607A68BB68110096
:103B4000180000F007FBC046BD4604B080BDC0466B
:103B5000448A002080B584B000AF78607B68DB6861
:103B6000DB68BB60BB68002B02D172B600BEFDE70C
:103B7000BB6818331800FEF7C9FC1F4B1B68002BED
:103B80001DD1BB6804331800FEF7C0FCBB68DA6ABD
:103B90001A4B1B689A4203D9BB68DA6A174B1A6042
:103BA000BB68DA6A13009B009B189B00144A9A18A2
:103BB000BB68043319001000FEF750FC07E0BB6837
:103BC00018331A000F4B11001800FEF747FCBB68B2
:103BD000DA6A0D4B1B68DB6A9A4205D90123FB6048
:103BE0000A4B01221A6001E00023FB60FB68180009
:103BF000BD4604B080BDC046808B0020608B002095
:103C0000488A0020188B0020448A00206C8B0020FA
:103C100080B584B000AF78603960254B1B68002BFD
:103C200002D172B600BEFDE73B68802212061A433D
:103C30007B681A607B68DB68BB60BB68002B02D1C5
:103C400072B600BEFDE77B681800FEF75FFCBB683C
:103C500004331800FEF75AFCBB68DA6A154B1B6880
:103C60009A4203D9BB68DA6A124B1A60BB68DA6AF7
:103C700013009B009B189B000F4A9A18BB680433E3
:103C800019001000FEF7EAFBBB68DA6A0B4B1B68F1
:103C9000DB6A9A4205D90123FB60094B01221A60B5
:103CA00001E00023FB60FB681800BD4604B080BD46
:103CB000808B0020608B0020488A0020448A0020EE
:103CC0006C8B002080B582B000AF78607B68002BE1
:103CD00002D172B600BEFDE7054B1A687B681A6018
:103CE000044B1A687B685A60C046BD4602B080BD6E
:103CF000708B00205C8B002080B584B000AF7860B2
:103D000039607B68002B02D172B600BEFDE73B68CC
:103D1000002B02D172B600BEFDE701F02BFE234B53
:103D20001B68BB60224B1B6871229B5C002B07D079
:103D30001F4B1B687122002199540123FB602EE068
:103D40003B681B68013302D10023FB6027E07B68DE
:103D50001A68184B1B689A4207D07B685A68BB6880
:103D60009A4202D80123FB6019E07B685B68BA685D
:103D7000D21A3B681B689A420FD23B681A687B686C
:103D80005968BB68CB1AD2183B681A607B68180068
:103D9000FFF798FF0023FB6001E00123FB6001F0C7
:103DA000F1FDFB681800BD4604B080BD5C8B0020AF
:103DB000448A0020708B002080B500AF024B0122A6
:103DC0001A60C046BD4680BD6C8B002080B582B0B5
:103DD00000AF786000F04EF8034B1B68012BF9D957
:103DE000FEF73EFCF6E7C046488A002080B582B068
:103DF00000AF00237B600CE07A6813009B009B18E7
:103E00009B00144A9B181800FEF7FFFA7B680133E9
:103E10007B607B68072BEFD90F4B1800FEF7F5FA94
:103E20000E4B1800FEF7F1FA0D4B1800FEF7EDFAF5
:103E30000C4B1800FEF7E9FA0B4B1800FEF7E5FAF9
:103E40000A4B054A1A600A4B044A1A60C046BD462E
:103E500002B080BD488A0020E88A0020FC8A002049
:103E6000188B00202C8B0020448B0020108B00200E
:103E7000148B002080B582B000AF27E0FFF744FC30
:103E8000164B1B685A425341DBB27B60FFF748FC7C
:103E90007B68002B1AD101F06DFD104BDB68DB68ED
:103EA0003B603B6804331800FEF730FB0C4B1B688B
:103EB0005A1E0B4B1A600B4B1B685A1E094B1A609B
:103EC00001F060FD3B68180000F00EF8054B1B6820
:103ED000002BD3D1C046BD4602B080BD2C8B002044
:103EE000588B0020408B002080B582B000AF7860F6
:103EF0007B681B6B1800FEF7A1FC7B681800FEF7BF
:103F00009DFCC046BD4602B080BD000080B582B0B9
:103F100000AF0E4B1B681B68002B01D1012300E092
:103F20000023002B04D00A4B012252421A6008E001
:103F3000064B1B68DB68DB687B607B685A68044B58
:103F40001A60C046BD4602B080BDC046108B00203E
:103F5000788B002080B582B000AF0A4B1B68002B25
:103F600002D101237B6008E0074B1B68002B02D1C4
:103F700002237B6001E000237B607B681800BD4664
:103F800002B080BD648B0020808B002080B584B09F
:103F900000AF78607B68FB607B68002B4AD0FB68D1
:103FA000DA6A264B1B68DB6A9A4243D2FB689B693C
:103FB000002B06DB214B1B68DB6A0822D21AFB6848
:103FC0009A61FB685969FB68DA6A13009B009B18C9
:103FD0009B001B4A9B18994201D1012300E000235A
:103FE000002B22D0FB6804331800FEF78FFA134B26
:103FF0001B68DA6AFB68DA62FB68DA6A114B1B68D5
:104000009A4203D9FB68DA6A0E4B1A60FB68DA6AD7
:1040100013009B009B189B00094A9A18FB68043305
:1040200019001000FEF71AFA04E0044B1B68DA6A64
:10403000FB68DA62C046BD4604B080BD448A0020F9
:10404000488A0020608B002080B584B000AF786083
:104050007B68BB600023FB607B68002B46D0264B4F
:104060001B68BA689A4202D072B600BEFDE7BB6810
:104070009B6C002B02D172B600BEFDE7BB689B6C47
:104080005A1EBB689A64BB68DA6ABB685B6C9A426A
:104090002CD0BB689B6C002B28D1BB680433180064
:1040A000FEF734FABB685A6CBB68DA62BB68DB6A3D
:1040B0000822D21ABB689A61BB68DA6A0F4B1B6888
:1040C0009A4203D9BB68DA6A0C4B1A60BB68DA6A99
:1040D00013009B009B189B00094A9A18BB68043385
:1040E00019001000FEF7BAF90123FB60FB68180005
:1040F000BD4604B080BDC046448A0020608B0020CD
:10410000488A002080B582B000AF084B1B689B69CD
:104110007B60064B1B68054A1268D26A08218A1A1E
:104120009A617B681800BD4602B080BD448A0020B9
:1041300080B500AF064B1B68002B04D0044B1B68F6
:104140009A6C01329A64024B1B681800BD4680BD10
:10415000448A002080B584B000AF78603960244B79
:104160001B68FB60234B1B68712200219954214B73
:104170001B6804331800FEF7C9F97B6801330BD1C3
:104180003B68002B08D01B4B1B681A1D1A4B1100F3
:104190001800FEF763F926E0FA687B68D318BB6065
:1041A000144B1B68BA685A60BA68FB689A4209D215
:1041B000124B1A680F4B1B68043319001000FEF7EE
:1041C0006FF910E00E4B1A680A4B1B680433190094
:1041D0001000FEF765F90B4B1B68BA689A4202D2D1
:1041E000084BBA681A60C046BD4604B080BDC046E0
:1041F0005C8B0020448A0020448B0020148B00201C
:10420000108B0020788B002080B584B002AF002393
:104210007B6000F0C9FA0E4B1B68002B0CD080238A
:104220009A000C490C480D4B01930723009300237F
:10423000FFF766F803007B607B68002B02D172B643
:1042400000BEFDE77B681800BD4602B080BDC046D9
:10425000B48B002044C1000005440000B88B00204E
:1042600090B589B002AFF860B9607A603B602820F1
:10427000FEF756FA03007B617B69002B0AD03C688D
:104280007A68B968F8687B690193BB6A0093230078
:1042900000F005F87B691800BD4607B090BD80B5F9
:1042A00084B000AFF860B9607A603B60BB68002BF7
:1042B00002D172B600BEFDE7FB69002B15D000F0FD
:1042C00073FAFB69FA681A60FB69BA689A61FB695C
:1042D0007A68DA61FB693A681A62FB69BA695A62FC
:1042E000FB6904331800FEF7AEF8C046BD4604B0C3
:1042F00080BD000080B58AB000AFF860B9607A6018
:104300003B6000237B62FB68002B02D172B600BECB
:10431000FDE71E4B1B68002B33D01423FB18BA6833
:104320001A601423FB187A685A601423FB18FA6881
:104330009A60BB68052B1ADCFFF70CFE0300022B0A
:104340000AD1124B18683A6B1423F9180023FEF7B0
:10435000BAFB03007B6214E00C4B18681423F918B5
:1043600000230022FEF7AFFB03007B6209E0074B4E
:1043700018683A681423F9180023FEF77CFC030040
:104380007B627B6A1800BD460AB080BDB48B0020FA
:1043900080B586B002AF78603960194B1B68DB6866
:1043A000DB68FB60FB6804331800FEF7AFF8FB68BE
:1043B000DB69012B1AD1FB689A697B68D1187B688D
:1043C0003A68F86800F0B8F8031E0FD07A68F86809
:1043D0000023009300230021FFF78CFF0300BB6044
:1043E000BB68002B02D172B600BEFDE7FB685B6ABA
:1043F000FA6810009847C046BD4604B080BDC0466C
:10440000AC8B002080B584B000AF78600823FB1827
:10441000180000F051F80300FB60BA68FB68110057
:10442000180000F003F800F0C9F8EFE780B584B099
:1044300000AF78603960FFF767F90823FB181800B0
:1044400000F05AF80300FB60BB68002B29D13B68E1
:10445000002B0CD17A68FB689A4208D8FFF760F904
:10446000FA687B6811001800FFF792FF1BE03B68B9
:10447000002B06D00E4B1B681B685A425341DBB21F
:104480003B600C4B18687A68FB68D31A3A681900CD
:10449000FEF7B4FEFFF744F9031E04D1FEF7E0F87F
:1044A00001E0FFF73DF9C046BD4604B080BDC046FF
:1044B000B08B0020B48B002080B584B000AF786052
:1044C0000C4B1B681B685A425341DBB21A007B68D5
:1044D0001A607B681B68002B05D1064B1B68DB68E4
:1044E0001B68FB6001E00023FB60FB681800BD4611
:1044F00004B080BDAC8B002080B584B000AF786084
:10450000FFF79AF90300FB600A4B1B68FA689A42AE
:1045100005D200F0EDF87B6801221A6002E07B68AA
:1045200000221A60034BFA681A60FB681800BD4647
:1045300004B080BDBC8B002080B586B000AFF860B1
:10454000B9607A603B6000237B61FB68BA685A609F
:10455000FB68FA681A61BA687B689A4212D87A686E
:104560003B68D21AFB689B699A4202D301237B61A4
:104570001BE0104B1A68FB68043319001000FDF7AC
:104580008FFF12E07A683B689A4206D2BA683B68AD
:104590009A4202D301237B6107E0074B1A68FB684C
:1045A000043319001000FDF77BFF7B691800BD463E
:1045B00006B080BDB08B0020AC8B002080B58CB0E5
:1045C00002AF81E00823FB181B68002B11DA0823D7
:1045D000FB1804337B627B6A002B02D172B600BEEB
:1045E000FDE77B6A1A687B6A58687B6A9B681900DA
:1045F00090470823FB181B68002B65DB0823FB187A
:104600009B683B623B6A5B69002B04D03B6A0433C6
:104610001800FDF77BFF3B1D1800FFF76DFF03003F
:10462000FB610823FB181B68092B4CD89A002E4B02
:10463000D3181B689F460823FB185A683B6A9B697E
:10464000D1180823FB185B68FA69386AFFF774FF12
:10465000031E39D03B6A5B6A3A6A100098473B6A8E
:10466000DB69012B30D10823FB185A683B6A9B6930
:10467000D218386A0023009300230021FFF73AFE86
:104680000300BB61BB69002B1ED172B600BEFDE703
:104690000823FB185A683B6A9A613B6A9B69002BA6
:1046A00002D172B600BEFDE73B6A9A69FB69D11878
:1046B000FB69FA69386AFFF73FFF05E03B6A1800BB
:1046C000FEF7BCF800E0C046084B18680823F9184C
:1046D00000230022FEF755FB031E00D072E7C04600
:1046E000BD460AB080BDC0462CC20000B48B00207D
:1046F00080B588B002AF3FE0294B1B68DB681B68C0
:104700007B61274B1B68DB68DB683B613B690433DB
:104710001800FDF7FBFE3B695B6A3A691000984799
:104720003B69DB69012B27D13B699A697B69D31807
:10473000FB60FA687B699A420ED93B69FA685A6055
:104740003B693A691A61164B1A683B6904331900D0
:104750001000FDF7A5FE0FE07A6938690023009389
:1047600000230021FFF7C6FD0300BB60BB68002BE0
:1047700002D172B600BEFDE7094B1B681B68002B17
:10478000BAD1074B1B687B60064B1A68044B1A6052
:10479000044B7A681A60C046BD4606B080BDC0466C
:1047A000AC8B0020B08B002080B500AF01F0E2F8A8
:1047B000144B1B68002B20D1134B1800FDF725FE6E
:1047C000124B1800FDF721FE114B0F4A1A60114BD6
:1047D0000E4A1A60002210210820FEF7E6F80200B7
:1047E000084B1A60074B1B68002B06D0054B1B6853
:1047F000094A11001800FEF7D9FC01F0C3F8C046C1
:10480000BD4680BDB48B0020848B0020988B002097
:10481000AC8B0020B08B00204CC1000080B58AB06A
:1048200000AFF860B9607A603B601423FB18022285
:1048300052421A601423FB18FA685A601423FB18BA
:10484000BA689A601423FB187A68DA60074B186814
:104850003A681423F9180023FEF70DFA03007B626F
:104860007B6A1800BD460AB080BDC046B48B0020EC
:1048700080B582B000AF0200FB1D1A70FB1D1B78D3
:10488000052B34D89A001C4BD3181B689F461B4B32
:104890000022DA602CE01A4B00221A62174BA02289
:1048A000D200DA6024E0164B802252041A62134BC5
:1048B000A022D200DA601BE0114B802292041A621F
:1048C0000E4BA022D200DA6012E00D4BC0229204FF
:1048D0001A620A4BA022D200DA6009E0084BC0221B
:1048E000D2041A62054BA022D200DA6000E0C04672
:1048F000C046BD4602B080BD54C2000000C00540A5
:1049000000B0074080B500AF0120FEF7C0F80200FC
:10491000084B1A60074B1B68002B02D172B600BE11
:10492000FDE70549F0235B008022D205CA50C0464E
:10493000BD4680BDC08B002000A0074080B584B07C
:1049400000AF786039603B68002B02D172B600BEC0
:10495000FDE7234B186801235A4200230021FEF78C
:1049600010FA0300012B02D072B600BEFDE71D4B0A
:10497000A52212069A601B4B1B4A5A60194BA722AC
:1049800012069A60174B012252421A60154BA5225B
:1049900012069A600023FB6008E012497A68FB68FF
:1049A000D3181B780B70FB680133FB60FA683B6817
:1049B0009A42F2D30B4B1B68BB60094B186800236B
:1049C00000220021FEF77FF80300012B02D072B60F
:1049D00000BEFDE7BB681800BD4604B080BDC04600
:1049E000C08B002000800740B71DC10480B582B095
:1049F00000AF0200FB1D1A70FB1D1B787F2B09D82E
:104A0000064BFA1D127811001F220A400121914025
:104A10000A001A60C046BD4602B080BD00E100E059
:104A2000B0B582B000AF02003960FB1D1A70FB1DEB
:104A30001B787F2B28D82F4CFB1D1B785BB29B0863
:104A40002C49FA1D127852B29208C0329200525884
:104A5000F91D0978080003210140C900FF208840A2
:104A60000100C94311403A689201FF201040FA1D2D
:104A70001278150003222A40D200904002000A4317
:104A8000C0339B001A5131E01B4CFB1D1B781A00F0
:104A90000F231340083B9908174AFB1D1B78180089
:104AA0000F230340083B9B0806339B00D3180433B5
:104AB0001B68FA1D1278100003220240D200FF206A
:104AC00090400200D2431A403B689B01FF201840EF
:104AD000FB1D1B781D0003232B40DB0098400300C7
:104AE0001A438B1D9B00E31804331A60C046BD4671
:104AF00002B0B0BD00E100E000ED00E080B500AF25
:104B0000084B1B68002B02D0074B1B689847074BCC
:104B10001B68002B02D0044B1B699847C046BD465A
:104B200080BDC046248000504889FF1F2480005269
:104B300080B500AF084B1B68002B02D0074B5B68A9
:104B40009847074B1B68002B02D0044B5B699847C2
:104B5000C046BD4680BDC046248080504889FF1FA6
:104B60002480805280B500AF084B1B68002B02D018
:104B7000074B9B689847074B1B68002B02D0044BE0
:104B80009B699847C046BD4680BDC0462480005101
:104B90004889FF1F2480005380B500AF084B1B6875
:104BA000002B02D0074BDB689847074B1B68002B94
:104BB00002D0044BDB699847C046BD4680BDC04665
:104BC000248080514889FF1F2480805380B500AF26
:104BD00072B600BEFDE70000B0B582B000AF0500C0
:104BE0000C0010001900FB1D2A1C1A70BB1D221C92
:104BF0001A707B1D021C1A703B1D0A1C1A70FB1DCB
:104C00001B78032B02D972B600BEFDE7BB1D1B78D3
:104C1000032B02D972B600BEFDE77B1D1B78032B68
:104C200002D972B600BEFDE73B1D1B78032B02D9EB
:104C300072B600BEFDE72F4984228023DB058B502E
:104C40002C4B8022D2051A622B4B1900042000F055
:104C50007BF82A4B1900002000F076F8284B190049
:104C6000012000F071F8274B1900022000F06CF8C9
:104C7000254B1900032000F067F800210420FFF7FE
:104C8000CFFEFB1D1B7819000020FFF7C9FEBB1DDE
:104C90001B7819000120FFF7C3FE7B1D1B7819004C
:104CA0000220FFF7BDFE3B1D1B7819000320FFF714
:104CB000B7FE0420FFF79AFE0020FFF797FE0120C1
:104CC000FFF794FE0220FFF791FE0320FFF78EFE10
:104CD00080235B000D481A00002100F095FF0C4B6B
:104CE00016221A600A4B40225A76C046BD4602B0D0
:104CF000B0BDC04600A00740CD4B0000FD4A0000FB
:104D0000314B0000654B0000994B000000900040C3
:104D10000080004080B582B000AF78600A00FB1CC4
:104D20001A70FB1C1B78072B02D972B600BEFDE778
:104D3000FB1C1A78034B92007968D150C046BD46DF
:104D400002B080BD4889FF1F10308000014A926880
:104D50001150704700ED00E080B582B000AF020056
:104D6000FB1D1A70FB1D1B787F2B09D8064BFA1D03
:104D7000127811001F220A40012191400A001A6096
:104D8000C046BD4602B080BD00E100E0B0B582B0D3
:104D900000AF02003960FB1D1A70FB1D1B787F2BD2
:104DA00028D82F4CFB1D1B785BB29B082C49FA1DA1
:104DB000127852B29208C03292005258F91D097806
:104DC000080003210140C900FF2088400100C943B9
:104DD00011403A689201FF201040FA1D1278150028
:104DE00003222A40D200904002000A43C0339B00B5
:104DF0001A5131E01B4CFB1D1B781A000F23134086
:104E0000083B9908174AFB1D1B7818000F23034025
:104E1000083B9B0806339B00D31804331B68FA1D1C
:104E20001278100003220240D200FF2090400200BE
:104E3000D2431A403B689B01FF201840FB1D1B78A2
:104E40001D0003232B40DB00984003001A438B1DF9
:104E50009B00E31804331A60C046BD4602B0B0BDE3
:104E600000E100E000ED00E080B582B000AFFB1D86
:104E700000221A701AE0FB1D1B78DB052C4A134335
:104E80001B68002B0DD0FB1D1B78DB05294A134343
:104E90001B68002B05D0FB1D1A78274B9200D358B6
:104EA0009847FB1D1A78FB1D01321A70FB1D1B78F9
:104EB000072BE0D9FB1D00221A7030E0FB1D1B7888
:104EC000DB051E4A13431B68002B0DD0FB1D1B780E
:104ED000DB051B4A13431B68002B05D0FB1D1A780A
:104EE000184B9200D3589847FB1D1B78DB05164AD8
:104EF00013431B68002B0DD0FB1D1B78DB05134AE9
:104F000013431B68002B05D0FB1D1A78104B920031
:104F1000D3589847FB1D1A78FB1D01321A70FB1DF0
:104F20001B78072BCAD9C046BD4602B080BDC0461B
:104F300028A00C5018A00C506889FF1F24A00C500A
:104F400014A00C50A889FF1F20A00C5010A00C50DA
:104F50008889FF1F80B582B000AF0200FB1D1A7068
:104F6000FB1D1B78032B02D972B600BEFDE70D496D
:104F700094235B008622D205CA500B4B19000520F2
:104F8000FFF7E2FEFB1D1B7819000520FFF7FEFE70
:104F90000520FFF7E1FE054B054A9A60C046BD4675
:104FA00002B080BD00A00F40694E000000A00C4080
:104FB0000100004080B582B000AF78600A00FB1CA1
:104FC0001A70FB1C1B78072B02D972B600BEFDE7D6
:104FD000FB1C1A78034B92007968D150C046BD463D
:104FE00002B080BD8889FF1F80B582B000AF7860B5
:104FF0000A00FB1C1A70FB1C1B78072B02D972B627
:1050000000BEFDE7FB1C1A78034B92007968D15073
:10501000C046BD4602B080BDA889FF1F00BEFDE7A7
:1050200080B582B000AF0200FB1D1A70FB1D1B781B
:105030007F2B09D8064BFA1D127811001F220A4057
:10504000012191400A001A60C046BD4602B080BDF1
:1050500000E100E0B0B582B000AF02003960FB1D96
:105060001A70FB1D1B787F2B28D82F4CFB1D1B783B
:105070005BB29B082C49FA1D127852B29208C032DA
:1050800092005258F91D0978080003210140C90017
:10509000FF2088400100C94311403A689201FF2077
:1050A0001040FA1D1278150003222A40D2009040C9
:1050B00002000A43C0339B001A5131E01B4CFB1D18
:1050C0001B781A000F231340083B9908174AFB1D51
:1050D0001B7818000F230340083B9B0806339B00F6
:1050E000D31804331B68FA1D127810000322024003
:1050F000D200FF2090400200D2431A403B689B013F
:10510000FF201840FB1D1B781D0003232B40DB00F4
:10511000984003001A438B1D9B00E31804331A6068
:10512000C046BD4602B0B0BD00E100E000ED00E0C9
:10513000B0B582B000AF05000C0010001900FB1DD7
:105140002A1C1A70BB1D221C1A707B1D021C1A70AF
:105150003B1D0A1C1A70FB1D1B78032B02D972B66B
:1051600000BEFDE7BB1D1B78032B02D972B600BE43
:10517000FDE77B1D1B78032B02D972B600BEFDE74D
:105180003B1D1B78032B02D972B600BEFDE7164902
:1051900090228023DB058B50FB1D1B7819001C20FF
:1051A000FFF758FFBB1D1B7819001D20FFF752FFAA
:1051B0007B1D1B7819001E20FFF74CFF3B1D1B7841
:1051C00019001F20FFF746FF1C20FFF729FF1D20B5
:1051D000FFF726FF1E20FFF723FF1F20FFF720FF0A
:1051E000C046BD4602B0B0BD00A0074080B582B049
:1051F00000AF0200FB1D1A70BB1D0A1C1A70FB1DBC
:105200001B785BB21F2B02DC72B600BEFDE7BB1D34
:105210001B78032B02D972B600BEFDE7FB1D1B787D
:105220005BB2203B5B05BA1D127892011032064931
:105230008C4662441343C022120513431B68C046C8
:10524000BD4602B080BDC0460040024000B5EFF34D
:10525000058003210840800104490858002803D034
:10526000034989680858804700BD00000440024097
:1052700000ED00E080B582B000AF0200FB1D1A70A7
:10528000FB1D1B787F2B09D8064BFA1D12781100E5
:105290001F220A40012191400A001A60C046BD4603
:1052A00002B080BD00E100E080B582B000AF020036
:1052B000FB1D1A70FB1D1B787F2B0AD80749FB1DAD
:1052C0001B781A001F23134001229A40C0235B0061
:1052D000CA50C046BD4602B080BDC04600E100E0F5
:1052E000B0B582B000AF02003960FB1D1A70FB1D23
:1052F0001B787F2B28D82F4CFB1D1B785BB29B089B
:105300002C49FA1D127852B29208C03292005258BB
:10531000F91D0978080003210140C900FF208840D9
:105320000100C94311403A689201FF201040FA1D64
:105330001278150003222A40D200904002000A434E
:10534000C0339B001A5131E01B4CFB1D1B781A0027
:105350000F231340083B9908174AFB1D1B781800C0
:105360000F230340083B9B0806339B00D3180433EC
:105370001B68FA1D1278100003220240D200FF20A1
:1053800090400200D2431A403B689B01FF20184026
:10539000FB1D1B781D0003232B40DB0098400300FE
:1053A0001A438B1D9B00E31804331A60C046BD46A8
:1053B00002B0B0BD00E100E000ED00E080B582B0D9
:1053C00000AFEFF305837B607B68DBB2103BDBB2A1
:1053D0005BB2180000F016F8C046BD4602B080BDB2
:1053E00080B500AF064B5B689B08DBB2103BDBB2BD
:1053F0005BB2180000F006F8C046BD4680BDC0464E
:105400000040024090B585B000AF0200FB1D1A704D
:105410000023BB600023FB6042E02649FA681300CA
:105420009B009B189B00CB1808331B785BB2FA1DBE
:10543000127852B29A4230D11E49FA6813009B008A
:105440009B189B00CB1804331B6800221A60194973
:10545000FA6813009B009B189B00CB180C331C6848
:105460001449FA6813009B009B189B00CB1810335B
:105470001A680823FB1810482100FFF7CFF9030032
:10548000012B02D072B600BEFDE7BB68002B0DD029
:105490000A4B802252051A6009E0FB680133FB6069
:1054A000FB68012BB9D972B600BEFDE7C046BD4608
:1054B00005B090BDC889FF1FAF23000004ED00E0D8
:1054C00080B582B000AF0200FB1D1A70BB1D0A1C24
:1054D0001A70FB1D1B78012B02D972B600BEFDE7C6
:1054E000BB1D1B78032B02D972B600BEFDE7FB1D66
:1054F0001A78474913009B009B189B005B58802239
:10550000D2051A60FB1D1A78414913009B009B18B5
:105510009B00CB1804331B6800221A60FB1D1A780D
:105520003B4913009B009B189B00CB1804331B685E
:1055300072225A60FB1D1A78354913009B009B1894
:105540009B00CB1808331B785BB21F2B3DDCFB1D87
:105550001A782F4913009B009B189B00CB18083327
:105560001B785BB21800FFF79FFEFB1D1A782849D5
:1055700013009B009B189B00CB1808331B785BB271
:10558000244A11001800FFF7DFFBFB1D1A782049A1
:1055900013009B009B189B00CB1808331B785AB252
:1055A000BB1D1B7819001000FFF79AFEFB1D1A782F
:1055B000174913009B009B189B00CB1808331B78DE
:1055C0005BB21800FFF756FE1EE0FB1D1A7810496B
:1055D00013009B009B189B00CB1808331B785BB211
:1055E0000D4A11001800FFF7AFFBFB1D1A780849A0
:1055F00013009B009B189B00CB1808331B785BB2F1
:1056000000211800FFF7F2FDC046BD4602B080BD84
:10561000C889FF1FBD530000E153000080B584B06E
:1056200000AFBA607B600F23FB18021C1A700C23BA
:10563000FB180A1C1A800F23FB181B78012B02D9B8
:1056400072B600BEFDE70F23FB181A78204913003D
:105650009B009B189B00CB1804331B6800221A6028
:105660000F23FB181A781A4913009B009B189B0004
:10567000CB180C33BA681A600F23FB181A78144938
:1056800013009B009B189B00CB1810337A681A609C
:105690000F23FB181A780E4913009B009B189B00E0
:1056A000CB1804331B680C22BA1812889A600F2397
:1056B000FB181A78064913009B009B189B00CB1817
:1056C00004331B6841221A60C046BD4604B080BD49
:1056D000C889FF1F80B582B000AF0200FB1D1A70A1
:1056E000FB1D1B78012B02D972B600BEFDE7FB1D26
:1056F0001A78074913009B009B189B00CB180433B2
:105700001B6800221A60C046BD4602B080BDC0467C
:10571000C889FF1F00B5062200F002F800BD000096
:1057200007B500F027F907BC044B9A601860596070
:10573000D86801B400F026F901BD0000004000F077
:105740007047000080B500AF0120FDF7A0F902000E
:10575000084B1A60074B1B68002B02D172B600BEC3
:10576000FDE70549E0228023DB058B50C046BD469E
:1057700080BDC046C48B002000A0074080B582B029
:1057800000AF78607B68002B02D172B600BEFDE7E7
:10579000154B186801235A4200230021FDF7F1FA46
:1057A0000300012B02D072B600BEFDE70F4B0122B1
:1057B0001A610E4B00221A610C4B7A681A600B4B6F
:1057C00010225A61084B1868002300220021FDF7BF
:1057D0007AF90300012B02D072B600BEFDE7C04685
:1057E000BD4602B080BDC046C48B0020008003408F
:1057F00080B582B000AF154B186801235A420023D0
:105800000021FDF7BEFA0300012B02D072B600BEE4
:10581000FDE70F4B1B68002B03D10E4B1B687B6011
:1058200001E000237B60094B18680023002200215F
:10583000FDF749F90300012B02D072B600BEFDE767
:105840007B681800BD4602B080BDC046C48B0020F6
:10585000148003500080034000B500F08BF8034A29
:105860001068516803B400F08DF803BDF050074094
:1058700090B585B000AF0200FB1D1A703B1D0A1CDD
:105880001A803B1D1B88002B03D13B1D0122524275
:105890001A8000F06FF82E4B2E4A5A602C4B3A1D9E
:1058A00012889A60FB1D1B78082B30D89A002A4B6F
:1058B000D3181B689F46264B00221A602BE0244B0E
:1058C000822292011A6026E0214BC22292011A60C4
:1058D00021E01F4B862292011A601CE01C4BC6225D
:1058E00092011A6017E01A4B8A2292011A6012E0A4
:1058F000174BCA2292011A600DE0154B8E229201BD
:105900001A6008E0124BCE2292011A6003E0104B9D
:1059100000221A60C046FFF79FFF03000C00BB6027
:10592000FC60C046FFF798FF0A000100BB68FC68F6
:10593000C91AA2410B001400002C03D1F2D13F2B55
:1059400000D8EFE700F01EF8C046BD4605B090BD98
:105950000060074020C528D96CC2000080B500AFA8
:10596000024B034A5A60C046BD4680BD00600740F6
:1059700002A680B472B60249086801300860704718
:10598000C88B0020034908680138086000D162B65E
:1059900070470000C88B002080B582B000AF7860EF
:1059A0007B6800221A70C046BD4602B080BD000070
:1059B00080B584B000AF786039607B681B780A2BB3
:1059C00000D99FE09A00534BD3181B689F463B6851
:1059D0001B787E2B0AD17B6801221A700F23FB18DB
:1059E00000221A703B6800221A700AE07B680022CD
:1059F0001A700F23FB1800221A703B6800221A70DD
:105A0000C04680E03B681B787D2B0CD07E2B15D1E7
:105A10007B6801221A700F23FB1800221A703B6862
:105A200000221A7012E07B6805221A700F23FB18FF
:105A300001221A703B6800221A7007E07B6802227C
:105A40001A700F23FB1802221A70C0465BE03B68F5
:105A50001B787D2B0CD07E2B15D17B6804221A700D
:105A60000F23FB1805221A703B6800221A7012E0FF
:105A70007B6806221A700F23FB1803221A703B68FA
:105A800000221A7007E07B6803221A700F23FB18AC
:105A900004221A70C04636E03B681B785E2B1AD091
:105AA0007E2B02D05D2B0BD020E07B680A221A707F
:105AB0000F23FB1806221A703B6800221A7020E0A0
:105AC0007B6807221A700F23FB1804221A703B68A8
:105AD0007D221A7015E07B6808221A700F23FB18CC
:105AE00004221A703B687E221A700AE07B68092241
:105AF0001A700F23FB1806221A703B6800221A70D6
:105B0000C04600E0C0460F23FB181B781800BD46B6
:105B100004B080BD90C2000080B586B000AFF860D0
:105B2000B9607A603B6000233B613B68002B02D187
:105B300072B600BEFDE73B695A1C3A61FA68D31899
:105B40007E221A7000237B6133E0BA687B69D31828
:105B50001B787D2B10D07E2B1DD13B695A1C3A61DE
:105B6000FA68D3187D221A703B695A1C3A61FA68A8
:105B7000D3185E221A7019E03B695A1C3A61FA6820
:105B8000D3187D221A703B695A1C3A61FA68D318FF
:105B90005D221A700AE03B695A1C3A61FA68D31810
:105BA000B9687A698A1812781A70C0467B6901331D
:105BB0007B617A693B689A42C7D33B695A1C3A6158
:105BC000FA68D3187E221A707B683A691A60C04658
:105BD000BD4606B080BD0023002A0CD030B4C45CA2
:105BE000CD5C0133AC4202D004D85B4202E0934268
:105BF000F5D1002330BC18467047002A03D0013A83
:105C00008B5C8354FBD17047002A02D0013A815447
:105C1000FCD1704780B584B000AF78603960002354
:105C2000FB600AE07A68FB68D3183968FA688A185A
:105C300012781A70FB680133FB603A68FB68D3186E
:105C40001B78002BEED17A68FB68D31800221A70FB
:105C5000FB681800BD4604B080BD000090B583B05D
:105C600000AFFC1DFAF7F6FE03002370FB1D1B7846
:105C70000A2B1FD89A00124BD3181B689F46FB1D96
:105C80001B78180004F0BAF915E005F0A1FB12E04A
:105C900005F002FD0FE005F0C9FE0CE005F052FE34
:105CA00009E005F06BFE06E006F0FAF903E005F006
:105CB0008FFD00E0FEE700231800BD4603B090BD55
:105CC000BCC2000080B582B000AF0200FB1D1A709C
:105CD000FB1D1B787F2B09D8064BFA1D127811008B
:105CE0001F220A40012191400A001A60C046BD46A9
:105CF00002B080BD00E100E080B582B000AF0200DC
:105D0000FB1D1A70FB1D1B787F2B0ED80949FB1D4C
:105D10001B781A001F23134001229A40130080228F
:105D20008B50BFF34F8FBFF36F8FC046BD4602B09D
:105D300080BDC04600E100E080B582B000AF020047
:105D4000FB1D1A70FB1D1B787F2B0AD80749FB1D12
:105D50001B781A001F23134001229A40C0235B00C6
:105D6000CA50C046BD4602B080BDC04600E100E05A
:105D7000B0B582B000AF02003960FB1D1A70FB1D88
:105D80001B787F2B28D82F4CFB1D1B785BB29B0800
:105D90002C49FA1D127852B29208C0329200525821
